:100000000C9462000C948A000C948A000C94C10930
:100010000C9461090C94F3080C948A000C948A00E7
:100020000C948A000C948A000C948A000C948A0028
:100030000C948A000C948A000C948A000C948A0018
:100040000C948A070C948A000C9458070C9432077D
:100050000C948A000C948A000C948A000C948A00F8
:100060000C94D4070C948A000000000023002600A2
:10007000290000000008000201000003040700003E
:1000800000000000000000000000250028002B00F8
:1000900000000000240027002A00040404040404D3
:1000A0000404020202020202030303030303010227
:1000B00004081020408001020408102001020408F6
:1000C0001020210A11241FBECFEFD8E0DEBFCDBF24
:1000D00011E0A0E0B1E0E4EDF2E202C005900D9283
:1000E000AE39B107D9F723E0AEE9B1E001C01D9206
:1000F000AF3DB207E1F710E0C2E6D0E004C02197BF
:10010000FE010E943D10C136D107C9F70E94B10A15
:100110000C9468110C940000CF93DF9390E0FC01E5
:10012000E255FF4F249186569F4FFC01849188230E
:10013000C1F090E0880F991FFC01E057FF4FC59177
:10014000D491FC01EA57FF4FA591B4919FB7F89461
:100150003881822F809583238883EC91E22BEC9366
:100160009FBFDF91CF91089520916D0281E02132F0
:1001700008F044C0809149028111FCCF80916C024B
:1001800092E09093490291E0909348029FEF909300
:1001900047021092460220934502ACE4B2E0E5E249
:1001A000F2E090E0291331C01092240290912402D1
:1001B000880F892B8093240280912302813049F596
:1001C00010922302809124028093BB008091BC0096
:1001D00083FDF8CF85EC8093BC008091490282308A
:1001E000E1F3809147028F3FB1F080914702803266
:1001F000A1F080914702803391F084E010924B028D
:1002000010926D0210924A0208953D9131939F5FC2
:10021000C9CF85EEE0CF80E0F1CF82E0EFCF83E081
:10022000EDCF08950895AF92BF92CF92DF92EF92F3
:10023000FF920F931F93CF93DF936C017B018B0190
:10024000040F151FEB015E01AE18BF08C017D107E0
:1002500059F06991D601ED91FC910190F081E02D6A
:10026000C6010995892B79F7C501DF91CF911F91BF
:100270000F91FF90EF90DF90CF90BF90AF900895D7
:10028000FC01538D448D252F30E0842F90E0821B9C
:10029000930B541710F0CF96089501970895FC0121
:1002A000918D828D981761F0A28DAE0FBF2FB11D79
:1002B0005D968C91928D9F5F9F73928F90E00895D1
:1002C0008FEF9FEF0895FC01918D828D981731F08B
:1002D000828DE80FF11D858D90E008958FEF9FEFDF
:1002E0000895FC01918D228D892F90E0805C9F4FB5
:1002F000821B91098F73992708958EE692E00E94E0
:10030000710121E0892B09F420E0822F089580E01B
:1003100090E0892B29F00E947D0181110C9400004E
:100320000895FC01A48DA80FB92FB11DA35ABF4F8A
:100330002C91848D90E001968F739927848FA689E4
:10034000B7892C93A089B1898C91837080648C9338
:10035000938D848D981306C00288F389E02D8081E7
:100360008F7D80830895EF92FF920F931F93CF9319
:10037000DF93EC0181E0888F9B8D8C8D98131AC0E0
:10038000E889F989808185FF15C09FB7F894EE89C7
:10039000FF896083E889F989808183708064808324
:1003A0009FBF81E090E0DF91CF911F910F91FF906F
:1003B000EF900895F62E0B8D10E00F5F1F4F0F7317
:1003C0001127E02E8C8D8E110CC00FB607FCFACFD2
:1003D000E889F989808185FFF5CFCE010E949101DE
:1003E000F1CFEB8DEC0FFD2FF11DE35AFF4FF082A3
:1003F0009FB7F8940B8FEA89FB8980818062CFCF09
:10040000CF93DF93EC01888D8823B9F0AA89BB894B
:10041000E889F9898C9185FD03C0808186FD0DC036
:100420000FB607FCF7CF8C9185FFF2CF808185FF57
:10043000EDCFCE010E949101E9CFDF91CF910895D8
:10044000833081F028F4813099F08230A9F008954A
:100450008730A9F08830C9F08430B1F480918000F1
:100460008F7D03C0809180008F77809380000895F6
:1004700084B58F7784BD089584B58F7DFBCF80913F
:10048000B0008F778093B00008958091B0008F7D89
:10049000F9CFCF93DF93282F30E0F901EE58FF4FCB
:1004A0008491F901E255FF4FD491F901E656FF4FCF
:1004B000C491CC2389F081110E942002EC2FF0E03E
:1004C000EE0FFF1FEA57FF4FA591B4918FB7F89435
:1004D000EC91DE2BDC938FBFDF91CF9108951092CA
:1004E00002021092010210924B0210926D021092C1
:1004F000490281E0809348021092230282E10E9427
:10050000490283E10E944902E9EBF0E080818E7F9D
:10051000808380818D7F808388E48093B80085E428
:100520008093BC0081E191E0909300028093FF01F1
:1005300082E191E09093FE018093FD010895CF93B5
:10054000DF93282F30E0F901EE58FF4F8491F90135
:10055000E255FF4FD491F901E656FF4FC491CC23E9
:10056000A1F081110E942002EC2FF0E0EE0FFF1F9E
:10057000E859FF4FA591B491EC91ED2381E090E013
:1005800009F480E0DF91CF91089580E090E0FACF08
:100590003FB7F8948091F7019091F801A091F9018B
:1005A000B091FA0126B5A89B05C02F3F19F001961E
:1005B000A11DB11D3FBFBA2FA92F982F8827BC01BD
:1005C000CD01620F711D811D911D42E0660F771FE5
:1005D000881F991F4A95D1F708958F929F92AF92E5
:1005E000BF92CF92DF92EF92FF924B015C010E948B
:1005F000C8026B017C010E94C8026C197D098E093A
:100600009F09683E734081059105A8F321E0821A95
:100610009108A108B10888EEC80E83E0D81EE11C3D
:10062000F11C81149104A104B10429F7FF90EF900B
:10063000DF90CF90BF90AF909F908F900895809162
:10064000010290910202891B990B089585ED809318
:10065000BC008091BC0084FDFCCF1092490208953B
:100660002091CF01260F3327331F21323105ECF4BF
:1006700020914902FC0190E080E0243069F082E0A2
:100680000895A091CF012191AC0141555E4FA40F77
:10069000B52FB11D2C930196861798F38091CF0149
:1006A000680F6093CF0180E0089581E00895089578
:1006B000E091020280910102E81730F4F0E0ED5F72
:1006C000FD4F808190E008958FEF9FEF0895909106
:1006D0000202809101022FEF3FEF981748F4E92FB3
:1006E000F0E0ED5FFD4F208130E09F5F90930202CC
:1006F000C9010895CF92DF92EF92FF920F931F935B
:10070000CF93DF937C01CB018A0120914A022223FF
:1007100089F0EB016B01C40ED51ECC15DD0569F027
:100720006991D701ED91FC910190F081E02DC70115
:100730000995F3CF642F0E943003C801DF91CF9158
:100740001F910F91FF90EF90DF90CF900895CF937E
:10075000DF931F92CDB7DEB7698320914A0222232F
:10076000F9F020916D02203258F021E030E0FC01D8
:100770003383228390E080E00F90DF91CF91089542
:1007800080914B02E82FF0E0E45BFD4F998190836C
:100790008F5F80934B0280936D0281E090E0ECCFFD
:1007A00061E0CE0101960E943003F7CF682F8BE005
:1007B00093E00C94A703CF93DF93EA01FC018081BF
:1007C00091E090934A0280936C0210924B02109237
:1007D0006D028BE093E00E94A7036D2F8BE093E006
:1007E0000E94A7036C2F8BE093E00E94A703DF9188
:1007F000CF910C94B400CF93C42FFC01808191E081
:1008000090934A0280936C0210924B0210926D02F8
:100810008BE093E00E94A7036C2F8BE093E00E9493
:10082000A703CF910C94B40090E080E0089581304C
:10083000F1F0B0F08230E9F0E82FF0E0E559FF4F39
:100840009081692B60839091680021E030E001C0C5
:10085000220F8A95EAF7892F822B809368000895EA
:1008600093B1E42FF0E0E455FE4F9083E5CF96B1CD
:10087000F8CF99B1F6CF0895CF93C42FFC018081B2
:1008800091E090934A0280936C0210924B02109276
:100890006D028BE093E00E94A7036C2F8BE093E046
:1008A0000E94A703CF910C94B4000F931F93CF9392
:1008B000DF93042FD52F122FC32FFC01808191E0ED
:1008C00090934A0280936C0210924B0210926D0238
:1008D000F4E06F9FB00111246A5F7F4F8BE093E0DB
:1008E0000E94A703802F9D2F0E94D6038D2F90E09A
:1008F0000E94D603812F9C2F0E94D6038C2F90E05C
:100900000E94D603DF91CF911F910F910C94B400F8
:100910001F93CF93DF93EC01162F70E090E080E0FF
:100920000E94440F20E030E044EB52E40E94A10E0C
:1009300020E030E040E05FE30E94350E20E030E050
:100940004AE754E40E94D00F20E030E44CE950E440
:100950000E94A10E0E94130F9B0168818B819C81D4
:10096000895B9F4F50E040E0211570E1370720F090
:1009700030E020E040E050E10E9455041E83DF910A
:10098000CF911F910895883088F590E1980F2091BC
:10099000AB013091A801863008F064C0843008F0C3
:1009A00047C070939F0160939E01805F2AEB35E002
:1009B000823109F064C030932501209324018770AF
:1009C00061E070E001C0660F8A95EAF78091AB01A3
:1009D000862B8093AB018091A801862B8093A80180
:1009E00042E082E00E94170481E008958A30C8F650
:1009F0007093A5016093A401885028EA35E009F0BE
:100A00004DC0309301012093000161E070E001C00E
:100A1000660F8A95EAF78091A901862B8093A90138
:100A20008091A601862B8093A60140E080E0DACF7A
:100A30007093A1016093A00144EB55E0943121F53E
:100A40005093190140931801977061E070E001C064
:100A5000660F9A95EAF7262B2093AB01362B30933D
:100A6000A801BECF7093A3016093A2014EEA55E0A6
:100A7000963179F450931D0140931C01E5CF3093DA
:100A80002701209326019BCF50931B0140931A010D
:100A9000DBCF50931F0140931E01D6CF309303014B
:100AA00020930201B2CF1F93CF93DF93EC01888193
:100AB0000E949F02182F89810E949F02EA81E370A1
:100AC0001111E4608111E8608E2F90E09595879573
:100AD000959587958A83E150EE30F0F4F0E0ED587B
:100AE000FA4F0C943D1081059005980590058C05F2
:100AF000A00581058105A0058C0590059805900548
:100B000081058B819C81AD81BE810196A11DB11DA6
:100B10008B839C83AD83BE83DF91CF911F9108951A
:100B20008B819C81AD81BE810197A109B109F0CF74
:100B30008B819C81AD81BE810296A11DB11DE8CF44
:100B40008B819C81AD81BE810297A109B109E0CF63
:100B50008091A4019091A5010C9453058091A2016C
:100B60009091A3010C9453058091A0019091A10153
:100B70000C94530580919E0190919F010C94530514
:100B80000F931F93CF93DF93EC01615019E008E0BE
:100B900051F017E006E0613031F014E005E062301A
:100BA00011F412E003E0802F0E948C00812F0E943C
:100BB0008C0080EE90E1998388830A871B871D86CD
:100BC0001E861F86188A8BE39FE10197F1F71C862A
:100BD0002A96BE01802F0E94C304BE01812FDF919F
:100BE000CF911F910F910C94C304CF93DF93D0E06A
:100BF000C0E0009771F0FC0101900020E9F7319707
:100C0000AF01481B590BBC018EE692E00E94130114
:100C1000EC0142E050E062E571E08EE692E00E9475
:100C200013018C0F9D1FDF91CF910895CF93DF9318
:100C3000EC0185E591E00E94F505CE010E94F505E5
:100C400083E591E0DF91CF910C94F50590914902F5
:100C50009111FCCF91E090934902909348022FEFBD
:100C60002093470210924602260F2093450290934C
:100C7000240290912402880F892B80932402809172
:100C80002302813019F5109223028091240280936F
:100C9000BB008091BC0083FDF8CF85EC8093BC0045
:100CA000809149028130E1F380914602861710F469
:100CB00060914602A5E2B2E0E3E0F2E080E0861354
:100CC00007C01092020280930102089585EEE6CFDC
:100CD0009D9191938F5FF3CFCF93DF93EC01888148
:100CE00091E090934A0280936C0210924B02109212
:100CF0006D028BE093E00E94A7030E94B40062E0C3
:100D000088810E9426062091010280910202281B00
:100D1000330B80ED97E02230310524F4009791F0F9
:100D20000197F9CF009771F08BE093E00E94670381
:100D3000C82F8BE093E00E94670320E03C2FA901BD
:100D4000482BCA01DF91CF910895CF92DF92EF92A5
:100D5000FF920F931F93CF93DF938C01D62FD42E46
:100D60006EE00E946C0641E050E09A0102C0220F42
:100D7000331FDA95E2F7E9018095909582239D2350
:100D8000892BD1F060E1C8010E946C06AE01482BAE
:100D9000592BD11005C0C095D095AE0148235923D9
:100DA00060E1C801DF91CF911F910F91FF90EF900B
:100DB000DF90CF900C94DB0366E0C8010E946C06C4
:100DC0007C0168E0C8010E946C06AE014095509518
:100DD000DD2069F06C01C422D522AE014E295F29C5
:100DE00066E0C8010E94DB03A60168E0DACFC82BE9
:100DF000D92B4E215F2166E0C8010E94DB03AE01C2
:100E0000F4CFCF93DF93EC01888191E090934A0275
:100E100080936C0210924B0210926D028BE093E073
:100E20000E94A7030E94B40061E088810E94260608
:100E30002091010280910202281B330B88EE93E07F
:100E40001216130624F0009759F00197F9CF892B59
:100E500039F08BE093E00E946703DF91CF91089512
:100E600080E0FBCF1F920F920FB60F9211242F93A9
:100E70003F934F935F936F937F938F939F93AF9322
:100E8000BF93EF93FF938EE692E00E949101FF9152
:100E9000EF91BF91AF919F918F917F916F915F91F2
:100EA0004F913F912F910F900FBE0F901F9018956B
:100EB0001F920F920FB60F9211242F938F939F932F
:100EC000EF93FF93E0917E02F0917F028081E091A9
:100ED0008402F091850282FD1BC09081809187027F
:100EE0008F5F8F7320918802821741F0E091870213
:100EF000F0E0E259FD4F958F80938702FF91EF91CB
:100F00009F918F912F910F900FBE0F901F9018956A
:100F10008081F4CF1F920F920FB60F9211242F935E
:100F20003F938F939F93AF93BF938091F3019091E1
:100F3000F401A091F501B091F6013091F20123E0A6
:100F4000230F2D3758F50196A11DB11D2093F201F5
:100F50008093F3019093F401A093F501B093F6010F
:100F60008091F7019091F801A091F901B091FA01F7
:100F70000196A11DB11D8093F7019093F801A093F4
:100F8000F901B093FA01BF91AF919F918F913F9179
:100F90002F910F900FBE0F901F90189526E8230FEA
:100FA0000296A11DB11DD2CF1F920F920FB60F92C4
:100FB00011242F933F934F935F936F937F938F935E
:100FC0009F93AF93BF93EF93FF938091B900887F76
:100FD000803609F44AC0F0F5883209F4A7C018F544
:100FE000803109F49BC0B8F4882309F4F9C0883033
:100FF00009F494C0FF91EF91BF91AF919F918F91B0
:101000007F916F915F914F913F912F910F900FBE04
:101010000F901F901895883109F488C0803251F7DD
:101020008093470214C0803409F49DC040F480339B
:10103000B9F38833F9F68093470285ECB0C0803568
:1010400009F485C0883509F496C0883499F60E9461
:101050002603D0CF883909F48CC038F5883729F0B9
:1010600050F4883611F0803729F683E080934902E6
:101070001092F10157C0883809F47BC0803919F00B
:10108000803809F0B7CF8091F101803208F071C04B
:10109000E091F10181E08E0F8093F1018091BB001E
:1010A000F0E0EF52FE4F80833DC0803B39F0E0F42A
:1010B000803A09F479C0883A09F09CCF84E08093A3
:1010C00049021092D0011092CF01E091FF01F091FE
:1010D000000209958091CF0181110FC081E08093BA
:1010E000CF011092AF0109C0803C09F4A6CF883C23
:1010F00009F4A3CF883B09F07DCFE091D00181E0D6
:101100008E0F8093D001F0E0E155FE4F80818093F7
:10111000BB009091D0018091CF0129C08091240221
:101120008093BB0085EC8093BC0064CF9091460215
:1011300080914502981758F5E091460281E08E0FA4
:1011400080934602F0E0EB5DFD4F8081E9CFE091B6
:10115000460281E08E0F809346028091BB00F0E052
:10116000EB5DFD4F80839091460280914502981778
:10117000C8F285E8D8CFE091460281E08E0F8093D7
:1011800046028091BB00F0E0EB5DFD4F80838091D3
:10119000480281115CCF81E08093230284EA80932E
:1011A000BC001092490226CF85EC8093BC001092BF
:1011B00049028091F101803230F4E091F101F0E0D8
:1011C000EF52FE4F10826091F10170E0E091FD015D
:1011D000F091FE0181ED91E009951092F1010ACFA5
:1011E0001092470234CF1F920F920FB60F92112424
:1011F0002F933F934F935F936F937F938F939F931F
:10120000AF93BF93CF93EF93FF9399B18091AE01CA
:10121000C091AB01C923282F2095C2232091A8019A
:101220008223292F20958223C82B9093AE01C4FFDF
:1012300005C0E0911801F09119010995C5FF05C09D
:10124000E0911A01F0911B010995C6FF05C0E091DC
:101250001C01F0911D010995C7FF05C0E0911E0119
:10126000F0911F010995C0FF05C0E0912001F091A8
:1012700021010995C1FF05C0E0912201F0912301F0
:101280000995C2FF05C0E0912401F091250109955F
:10129000C3FF05C0E0912601F09127010995FF9158
:1012A000EF91CF91BF91AF919F918F917F916F916E
:1012B0005F914F913F912F910F900FBE0F901F9014
:1012C00018951F920F920FB60F9211242F933F93F0
:1012D0004F935F936F937F938F939F93AF93BF933E
:1012E000CF93EF93FF9396B18091AD01C091AA0186
:1012F000C923282F2095C2232091A7018223292FBB
:1013000020958223C82B9093AD01C0FF05C0E091CA
:101310000C01F0910D010995C1FF05C0E0910E018E
:10132000F0910F010995C2FF05C0E0911001F09105
:1013300011010995C3FF05C0E0911201F09113015D
:101340000995C4FF05C0E0911401F09115010995BC
:10135000C5FF05C0E0911601F09117010995FF91B5
:10136000EF91CF91BF91AF919F918F917F916F91AD
:101370005F914F913F912F910F900FBE0F901F9053
:1013800018951F920F920FB60F9211242F933F932F
:101390004F935F936F937F938F939F93AF93BF937D
:1013A000CF93EF93FF9393B18091AC01C091A901CA
:1013B000C923282F2095C2232091A6018223292FFB
:1013C00020958223C82B9093AC01C0FF05C0E0910B
:1013D0000001F09101010995C1FF05C0E0910201F2
:1013E000F09103010995C2FF05C0E0910401F0915D
:1013F00005010995C3FF05C0E0910601F0910701C1
:101400000995C4FF05C0E0910801F0910901099513
:10141000C5FF05C0E0910A01F0910B010995FF910C
:10142000EF91CF91BF91AF919F918F917F916F91EC
:101430005F914F913F912F910F900FBE0F901F9092
:101440001895109271021092700288EE93E0A0E05D
:10145000B0E08093720290937302A0937402B093F1
:10146000750222E331E030936F0220936E0225EC87
:1014700030E030937B0220937A0224EC30E030930A
:101480007D0220937C0220EC30E030937F02209399
:101490007E0221EC30E0309381022093800222EC26
:1014A00030E0309383022093820226EC30E03093C8
:1014B0008502209384021092870210928802109273
:1014C000890210928A0210920E0310920D038093EB
:1014D0000F0390931003A0931103B093120384E4BD
:1014E00091E090930C0380930B038CE591E0909333
:1014F0001A03809319031092280310922703E5E43E
:10150000F3E080E090E0A0E8BFE340E050E060E876
:101510007FEB1486158616861786808B918BA28B9F
:10152000B38B848B958BA68BB78B408F518F628F3B
:10153000738F108611861286138614821582168286
:10154000178210821182128213827C9623E0E13D81
:10155000F207F9F684E090E0909318038093170364
:101560000895789484B5826084BD84B5816084BD1B
:1015700085B5826085BD85B5816085BD80916E0031
:10158000816080936E001092810080918100826062
:10159000809381008091810081608093810080919F
:1015A00080008160809380008091B100846080938E
:1015B000B1008091B00081608093B00080917A008A
:1015C000846080937A0080917A00826080937A00B0
:1015D00080917A00816080937A0080917A0080689F
:1015E00080937A001092C10088E691E00E9416066E
:1015F000E0917E02F0917F0282E08083E0917A02A6
:10160000F0917B021082E0917C02F0917D028FECE0
:10161000808310928602E0918202F091830286E03C
:101620008083E0918002F0918102808180618083DB
:10163000E0918002F0918102808188608083E09156
:101640008002F0918102808180688083E091800235
:10165000F091810280818F7D80838EE691E00E94EF
:1016600016068091190390911A030E941606109293
:10167000DA031092D9031092D6031092D503109278
:10168000D4031092D3031092D8031092D70380E8AA
:1016900090E00E944310EC01FC0133964F961582B6
:1016A0001482168212821182108237968E179F073B
:1016B000B1F71BA61EA61AA619A61FAEFE01EE5B69
:1016C000FF4F10821EAE1DAE8E01095B1F4F369676
:1016D000CF01C89614821382158210821682379623
:1016E0008E179F07B9F780E68883F8018083D0932F
:1016F0001C03C0931B030E946F020E946F0240E014
:1017000060E0C8010E943C0482E390E09A838983F0
:10171000F801808191E090934A0280936C021092CC
:101720004B0210926D0260E08BE093E00E94A703F1
:101730000E94B40061E0F80180810E9426068BE0DF
:1017400093E00E946703C82F482F4F76406160E006
:10175000C8010E943C0447E86EEFC8010E943C04A7
:101760004C2F60E0C8010E943C0465E070E080E01E
:1017700090E00E94ED024C2F416A60E0C8010E9497
:101780003C04C0E030E020E050E040E06C2FC801B5
:101790000E945504CF5FC031A9F7E0911B03F0917F
:1017A0001C038789811108C082E0878BF68BE58B4B
:1017B0008FE0828B8EE0838BCF0141969093240340
:1017C000809323038185811106C0F087E78388E039
:1017D000848389E08583CF010396909320038093CF
:1017E0001F038089811108C081E0808BF787E6871D
:1017F0008AE083878BE08487CF010A969093220347
:1018000080932103868D811108C083E0868FF58F38
:10181000E48F8DE0818F8CE0828F7896F0932603A1
:10182000E093250388E090E00E944310EC011C82C5
:101830001D821E821F8290932803809327038FE3CB
:1018400088838FEF8B830E946F028B818F3F09F417
:10185000E3C16FE1CE010E94010782FF06C0482F5D
:101860004B7F6FE1CE010E94FB031B816EE0CE0136
:101870000E946C0641E050E002C0440F551F1A95CB
:10188000E2F740955095482359236EE0CE010E941F
:10189000DB0340E06B81CE010E94A50661E070E0B1
:1018A00080E090E00E94ED0241E06B81CE010E9459
:1018B000A50663E1CE010E946C0681159F4F09F4D5
:1018C000B6C18EE791E00E94F50587E891E00E949D
:1018D000F50583E591E00E94F505C0912703D091BD
:1018E00028036EE0CE010E946C06AC0141606EE000
:1018F000CE010E94DB03C0912703D09128036EE044
:10190000CE010E946C06AC0142606EE0CE010E94E6
:10191000DB03C0912703D09128036EE0CE010E9423
:101920006C06AC0144606EE0CE010E94DB03C09106
:101930002703D09128036EE0CE010E946C06AC0113
:1019400048606EE0CE010E94DB03C0912703D09176
:1019500028036EE0CE010E946C06AC0140616EE08F
:10196000CE010E94DB03E0911B03F0911C03DF0119
:10197000A35BBF4F8C91EF01C85BDF4F81110AC0A1
:1019800012971196FC93EE9318828181928112979F
:101990008D939C93D0932C03C0932B03DF01A2580B
:1019A000BF4F8C91EF01C758DF4F81110CC087E00A
:1019B0008C9312971196FC93EE9388838181928188
:1019C00012978D939C93D0933A03C0933903DF0110
:1019D000AE59BF4F8C91EF01C35ADF4F81110CC03C
:1019E00083E08C9312971196FC93EE938883818108
:1019F000928112978D939C93D0933203C0933103BD
:101A0000EF01C759DF4F8881DF01AC59BF4F81110A
:101A10000BC084E088832297F983E8838C93229714
:101A20008181928199838883B0933403A093330397
:101A300081E190E00E944310EC0163E00E94C00548
:101A4000D0934203C093410381E190E00E94431090
:101A5000EC0161E00E94C005D0933E03C0933D03BA
:101A600081E190E00E944310EC0162E00E94C00519
:101A7000D0934003C0933F0381E190E00E94431064
:101A8000EC0164E00E94C005D0934403C09343037B
:101A9000C0E0D0E08091FB019091FC010196909311
:101AA000FC018093FB0168E280912B0390912C0351
:101AB0000E94880464E18091390390913A030E9466
:101AC00088046CE380913103909132030E94880472
:101AD00068E873E180E090E00E94ED0262E38091AB
:101AE000390390913A030E9488046CE88091310395
:101AF000909132030E94880468EE73E080E090E0E9
:101B00000E94ED0260E580912B0390912C030E94CE
:101B1000880460E080913303909134030E9488042C
:101B200068E873E180E090E00E94ED026AE5809150
:101B30002B0390912C030E9488046AE08091390362
:101B400090913A030E9488046DE580913103909151
:101B500032030E94880468E873E180E090E00E940C
:101B6000ED0268E280913303909134030E9488046F
:101B700068E873E180E090E00E94ED0268E2809105
:101B80002B0390912C030E94880464E18091390317
:101B900090913A030E9488046CE380913103909104
:101BA00032030E94880468E873E180E090E00E94BC
:101BB000ED026AE580912B0390912C030E9488042A
:101BC0006AE08091390390913A030E9488046DE5A0
:101BD00080913103909132030E94880468EB7BE08E
:101BE00080E090E00E94ED0260E0809133039091EC
:101BF00034030E94880468E873E180E090E00E946A
:101C0000ED02209709F446CF0E947D01882309F454
:101C100041CF0E9400003ECF42E16DE7CE010E941D
:101C2000FB0344E36DE7CE010E94FB0342CE40E498
:101C30006EE1CE010E94FB0380E894E8AEE1B0E0E3
:101C40008C839D83AE83BF836FE1CE010E94010729
:101C50008F78482F40616FE1CE010E94FB0382E93B
:101C600091E00E94160639CE5058BB27AA270E9441
:101C70004C0E0C94960F0E94880F38F00E948F0F24
:101C800020F039F49F3F19F426F40C94850F0EF4DC
:101C9000E095E7FB0C947F0FE92F0E94A70F58F304
:101CA000BA17620773078407950720F079F4A6F541
:101CB0000C94C90F0EF4E0950B2EBA2FA02D0B013A
:101CC000B90190010C01CA01A0011124FF27591B81
:101CD00099F0593F50F4503E68F11A16F040A22F87
:101CE000232F342F4427585FF3CF469537952795F8
:101CF000A795F0405395C9F77EF41F16BA0B620BF7
:101D0000730B840BBAF09150A1F0FF0FBB1F661F3D
:101D1000771F881FC2F70EC0BA0F621F731F841F80
:101D200048F4879577956795B795F7959E3F08F0A6
:101D3000B0CF9395880F08F09927EE0F9795879568
:101D400008950E94B50E0C94960F0E948F0F58F0C4
:101D50000E94880F40F029F45F3F29F00C947F0F18
:101D600051110C94CA0F0C94850F0E94A70F68F3B1
:101D70009923B1F3552391F3951B550BBB27AA2744
:101D800062177307840738F09F5F5F4F220F331F7E
:101D9000441FAA1FA9F335D00E2E3AF0E0E832D046
:101DA00091505040E695001CCAF72BD0FE2F29D049
:101DB000660F771F881FBB1F261737074807AB071B
:101DC000B0E809F0BB0B802DBF01FF2793585F4F90
:101DD0003AF09E3F510578F00C947F0F0C94CA0F97
:101DE0005F3FE4F3983ED4F3869577956795B79572
:101DF000F7959F5FC9F7880F911D9695879597F97D
:101E00000895E1E0660F771F881FBB1F62177307F5
:101E10008407BA0720F0621B730B840BBA0BEE1F0A
:101E200088F7E09508950E94AF0F88F09F5798F0CB
:101E3000B92F9927B751B0F0E1F0660F771F881FCF
:101E4000991F1AF0BA95C9F714C0B13091F00E94E9
:101E5000C90FB1E008950C94C90F672F782F882718
:101E6000B85F39F0B93FCCF3869577956795B39510
:101E7000D9F73EF490958095709561957F4F8F4F7F
:101E80009F4F0895E89409C097FB3EF49095809584
:101E9000709561957F4F8F4F9F4F9923A9F0F92F30
:101EA00096E9BB279395F695879577956795B795AE
:101EB000F111F8CFFAF4BB0F11F460FF1BC06F5F94
:101EC0007F4F8F4F9F4F16C0882311F096E911C0A6
:101ED000772321F09EE8872F762F05C0662371F0C7
:101EE00096E8862F70E060E02AF09A95660F771FDB
:101EF000881FDAF7880F9695879597F9089597F9CF
:101F00009F6780E870E060E008959FEF80EC08959F
:101F100000240A94161617061806090608950024C8
:101F20000A9412161306140605060895092E039442
:101F3000000C11F4882352F0BB0F40F4BF2B11F4B6
:101F400060FF04C06F5F7F4F8F4F9F4F089557FD15
:101F50009058440F551F59F05F3F71F04795880F17
:101F600097FB991F61F09F3F79F0879508951216AE
:101F700013061406551FF2CF4695F1DF08C016165A
:101F800017061806991FF1CF86957105610508940B
:101F90000895E894BB2766277727CB0197F9089522
:101FA0000E94E30F0C94960F0E94880F38F00E9455
:101FB0008F0F20F0952311F00C947F0F0C94850F58
:101FC00011240C94CA0F0E94A70F70F3959FC1F3C0
:101FD000950F50E0551F629FF001729FBB27F00DD7
:101FE000B11D639FAA27F00DB11DAA1F649F66272C
:101FF000B00DA11D661F829F2227B00DA11D621F7B
:10200000739FB00DA11D621F839FA00D611D221F34
:10201000749F3327A00D611D231F849F600D211D18
:10202000822F762F6A2F11249F5750409AF0F1F09B
:1020300088234AF0EE0FFF1FBB1F661F771F881F04
:1020400091505040A9F79E3F510580F00C947F0FAE
:102050000C94CA0F5F3FE4F3983ED4F386957795CE
:102060006795B795F795E7959F5FC1F7FE2B880FAA
:10207000911D9695879597F90895EE0FFF1F05908E
:10208000F491E02D09940F931F93CF93DF93823047
:10209000910510F482E090E0E091DD03F091DE0321
:1020A00030E020E0B0E0A0E0309799F42115310550
:1020B00009F44AC0281B390B24303105D8F58A8130
:1020C0009B816115710589F1FB0193838283FE0178
:1020D00011C0408151810281138148175907E0F0F6
:1020E0004817590799F4109761F012960C931297BC
:1020F00013961C933296CF01DF91CF911F910F91D0
:1021000008950093DD031093DE03F4CF211531050C
:1021100051F04217530738F0A901DB019A01BD01C4
:10212000DF01F801C1CFEF01F9CF9093DE03809377
:10213000DD03CDCFFE01E20FF31F81939193225077
:10214000310939832883D7CF2091DB033091DC0319
:10215000232B41F420912A0130912B013093DC0391
:102160002093DB03209128013091290121153105AD
:1021700041F42DB73EB740912C0150912D01241B05
:10218000350BE091DB03F091DC03E217F307A0F4D9
:102190002E1B3F0B2817390778F0AC014E5F5F4FBD
:1021A0002417350748F04E0F5F1F5093DC03409310
:1021B000DB03819391939FCFF0E0E0E09CCFCF933E
:1021C000DF930097E9F0FC01329713821282A0910D
:1021D000DD03B091DE03ED0130E020E01097A1F4C3
:1021E00020813181820F931F2091DB033091DC032A
:1021F0002817390709F061C0F093DC03E093DB0393
:10220000DF91CF910895EA01CE17DF07E8F54A8103
:102210005B819E0141155105B1F7E901FB83EA831A
:1022200049915991C40FD51FEC17FD0761F48081C6
:1022300091810296840F951FE90199838883828199
:1022400093819B838A83F0E0E0E012968D919C91CC
:1022500013970097B9F52D913C911197CD010296F6
:10226000820F931F2091DB033091DC03281739077D
:1022700039F6309751F51092DE031092DD03B093DA
:10228000DC03A093DB03BCCFD383C28340815181A5
:10229000840F951FC817D90761F44E5F5F4F88817F
:1022A0009981480F591F518340838A819B81938371
:1022B00082832115310509F0B0CFF093DE03E0935E
:1022C000DD039ECFFD01DC01C0CF13821282D7CF88
:0422D000F894FFCFB0
:1022D4003B043B043B043B043B043B043B043B0402
:1022E4003B043B043B043B043B043B043B043B04F2
:1022F4003B043B043B043B040000DF03800000007C
:102304000000B30113014001000271014F01630198
:1023140000000000A7037A03140457031F03670394
:1023240058030D0A005B4C6F675D3A0068656C6C7E
:102334006F20776F726C6400626567696E00566522
:102344006869636C652043726561746564005B450C
:1023540072726F725D3A00493243204661696C655E
:0E236400640049324320537461727465640052
:107E0000112484B714BE81FFF0D085E080938100F7
:107E100082E08093C00088E18093C10086E0809377
:107E2000C20080E18093C4008EE0C9D0259A86E02C
:107E300020E33CEF91E0309385002093840096BBD3
:107E4000B09BFECF1D9AA8958150A9F7CC24DD24C4
:107E500088248394B5E0AB2EA1E19A2EF3E0BF2EE7
:107E6000A2D0813461F49FD0082FAFD0023811F036
:107E7000013811F484E001C083E08DD089C08234E0
:107E800011F484E103C0853419F485E0A6D080C0E4
:107E9000853579F488D0E82EFF2485D0082F10E0AE
:107EA000102F00270E291F29000F111F8ED06801E7
:107EB0006FC0863521F484E090D080E0DECF843638
:107EC00009F040C070D06FD0082F6DD080E0C81688
:107ED00080E7D80618F4F601B7BEE895C0E0D1E017
:107EE00062D089930C17E1F7F0E0CF16F0E7DF06D8
:107EF00018F0F601B7BEE89568D007B600FCFDCFD4
:107F0000A601A0E0B1E02C9130E011968C91119780
:107F100090E0982F8827822B932B1296FA010C0160
:107F200087BEE89511244E5F5F4FF1E0A038BF0790
:107F300051F7F601A7BEE89507B600FCFDCF97BE46
:107F4000E89526C08437B1F42ED02DD0F82E2BD052
:107F50003CD0F601EF2C8F010F5F1F4F84911BD097
:107F6000EA94F801C1F70894C11CD11CFA94CF0C13
:107F7000D11C0EC0853739F428D08EE10CD085E9AC
:107F80000AD08FE07ACF813511F488E018D01DD067
:107F900080E101D065CF982F8091C00085FFFCCF94
:107FA0009093C60008958091C00087FFFCCF809118
:107FB000C00084FD01C0A8958091C6000895E0E648
:107FC000F0E098E1908380830895EDDF803219F02E
:107FD00088E0F5DFFFCF84E1DECF1F93182FE3DFCA
:107FE0001150E9F7F2DF1F91089580E0E8DFEE27F6
:047FF000FF270994CA
:027FFE00040479
:0400000300007E007B
:00000001FF
