:100000000C9462000C948A000C948A000C94870A69
:100010000C94270A0C94B9090C948A000C948A0059
:100020000C948A000C948A000C948A000C948A0028
:100030000C948A000C948A000C948A000C948A0018
:100040000C9450080C948A000C941E080C94F80729
:100050000C948A000C948A000C948A000C948A00F8
:100060000C949A080C948A000000000023002600DB
:10007000290000000008000201000003040700003E
:1000800000000000000000000000250028002B00F8
:1000900000000000240027002A00040404040404D3
:1000A0000404020202020202030303030303010227
:1000B00004081020408001020408102001020408F6
:1000C0001020E70A11241FBECFEFD8E0DEBFCDBF5E
:1000D00011E0A0E0B1E0E6EFF6E202C005900D927B
:1000E000A23CB107D9F724E0A2ECB1E001C01D9217
:1000F000A330B207E1F710E0C2E6D0E004C02197D8
:10010000FE010E944E12C136D107C9F70E94770B3B
:100110000C9479130C9400002091480281E0213264
:1001200008F044C080916F028111FCCF809147029A
:1001300092E090936F0291E090936E029FEF909304
:100140006D0210926C0220936B02A7E2B2E0E9E428
:10015000F2E090E0291331C010926A0290916A0295
:10016000880F892B80936A0280916902813049F55A
:100170001092690280916A028093BB008091BC005A
:1001800083FDF8CF85EC8093BC0080916F028230B4
:10019000E1F380916D028F3FB1F080916D0280326A
:1001A000A1F080916D02803391F084E010922602DC
:1001B000109248021092250208953D9131939F5F5D
:1001C000C9CF85EEE0CF80E0F1CF82E0EFCF83E0D2
:1001D000EDCFCF93DF9390E0FC01E255FF4F2491E8
:1001E00086569F4FFC0184918823C1F090E0880FD0
:1001F000991FFC01E057FF4FC591D491FC01EA57CC
:10020000FF4FA591B4919FB7F8943881822F8095C4
:1002100083238883EC91E22BEC939FBFDF91CF91F6
:10022000089508950895AF92BF92CF92DF92EF9212
:10023000FF920F931F93CF93DF936C017B018B0190
:10024000040F151FEB015E01AE18BF08C017D107E0
:1002500059F06991D601ED91FC910190F081E02D6A
:10026000C6010995892B79F7C501DF91CF911F91BF
:100270000F91FF90EF90DF90CF90BF90AF900895D7
:10028000FC01538D448D252F30E0842F90E0821B9C
:10029000930B541710F0CF96089501970895FC0121
:1002A000918D828D981761F0A28DAE0FBF2FB11D79
:1002B0005D968C91928D9F5F9F73928F90E00895D1
:1002C0008FEF9FEF0895FC01918D828D981731F08B
:1002D000828DE80FF11D858D90E008958FEF9FEFDF
:1002E0000895FC01918D228D892F90E0805C9F4FB5
:1002F000821B91098F739927089582E992E00E94E9
:10030000710121E0892B09F420E0822F089580E01B
:1003100090E0892B29F00E947D0181110C9400004E
:100320000895FC01A48DA80FB92FB11DA35ABF4F8A
:100330002C91848D90E001968F739927848FA689E4
:10034000B7892C93A089B1898C91837080648C9338
:10035000938D848D981306C00288F389E02D8081E7
:100360008F7D80830895EF92FF920F931F93CF9319
:10037000DF93EC0181E0888F9B8D8C8D98131AC0E0
:10038000E889F989808185FF15C09FB7F894EE89C7
:10039000FF896083E889F989808183708064808324
:1003A0009FBF81E090E0DF91CF911F910F91FF906F
:1003B000EF900895F62E0B8D10E00F5F1F4F0F7317
:1003C0001127E02E8C8D8E110CC00FB607FCFACFD2
:1003D000E889F989808185FFF5CFCE010E949101DE
:1003E000F1CFEB8DEC0FFD2FF11DE35AFF4FF082A3
:1003F0009FB7F8940B8FEA89FB8980818062CFCF09
:10040000CF93DF93EC01888D8823B9F0AA89BB894B
:10041000E889F9898C9185FD03C0808186FD0DC036
:100420000FB607FCF7CF8C9185FFF2CF808185FF57
:10043000EDCFCE010E949101E9CFDF91CF910895D8
:10044000833081F028F4813099F08230A9F008954A
:100450008730A9F08830C9F08430B1F480918000F1
:100460008F7D03C0809180008F77809380000895F6
:1004700084B58F7784BD089584B58F7DFBCF80913F
:10048000B0008F778093B00008958091B0008F7D89
:10049000F9CFCF93DF93282F30E0F901EE58FF4FCB
:1004A0008491F901E255FF4FD491F901E656FF4FCF
:1004B000C491CC2389F081110E942002EC2FF0E03E
:1004C000EE0FFF1FEA57FF4FA591B4918FB7F89435
:1004D000EC91DE2BDC938FBFDF91CF9108951092CA
:1004E000710210927002109226021092480210922D
:1004F0006F0281E080936E021092690282E10E9495
:10050000490283E10E944902E9EBF0E080818E7F9D
:10051000808380818D7F808388E48093B80085E428
:100520008093BC0081E191E09093240280932302A8
:1005300082E191E090932202809321020895CF936B
:10054000DF93282F30E0F901EE58FF4F8491F90135
:10055000E255FF4FD491F901E656FF4FC491CC23E9
:10056000A1F081110E942002EC2FF0E0EE0FFF1F9E
:10057000E859FF4FA591B491EC91ED2381E090E013
:1005800009F480E0DF91CF91089580E090E0FACF08
:100590003FB7F89480911B0290911C02A0911D021C
:1005A000B0911E0226B5A89B05C02F3F19F00196F9
:1005B000A11DB11D3FBFBA2FA92F982F8827BC01BD
:1005C000CD01620F711D811D911D42E0660F771FE5
:1005D000881F991F4A95D1F708958F929F92AF92E5
:1005E000BF92CF92DF92EF92FF924B015C010E948B
:1005F000C8026B017C010E94C8026C197D098E093A
:100600009F09683E734081059105A8F321E0821A95
:100610009108A108B10888EEC80E83E0D81EE11C3D
:10062000F11C81149104A104B10429F7FF90EF900B
:10063000DF90CF90BF90AF909F908F900895809162
:10064000700290917102891B990B089585ED80933A
:10065000BC008091BC0084FDFCCF10926F02089515
:100660002091F301260F3327331F21323105ECF49B
:1006700020916F02FC0190E080E0243069F082E07C
:100680000895A091F3012191AC014D525E4FA40F4A
:10069000B52FB11D2C930196861798F38091F30125
:1006A000680F6093F30180E0089581E00895089554
:1006B000E091710280917002E81730F4F0E0EE589A
:1006C000FD4F808190E008958FEF9FEF0895909106
:1006D0007102809170022FEF3FEF981748F4E92FD5
:1006E000F0E0EE58FD4F208130E09F5F9093710263
:1006F000C9010895CF92DF92EF92FF920F931F935B
:10070000CF93DF937C01CB018A0120912502222324
:1007100089F0EB016B01C40ED51ECC15DD0569F027
:100720006991D701ED91FC910190F081E02DC70115
:100730000995F3CF642F0E943003C801DF91CF9158
:100740001F910F91FF90EF90DF90CF900895CF937E
:10075000DF931F92CDB7DEB7698320912502222354
:10076000F9F020914802203258F021E030E0FC01FD
:100770003383228390E080E00F90DF91CF91089542
:1007800080912602E82FF0E0E95DFD4F998190838A
:100790008F5F809326028093480281E090E0ECCF47
:1007A00061E0CE0101960E943003F7CF682F8FE2FF
:1007B00093E00C94A703CF93DF93EA01FC018081BF
:1007C00091E09093250280934702109226021092A6
:1007D00048028FE293E00E94A7036D2F8FE293E01F
:1007E0000E94A7036C2F8FE293E00E94A703DF9182
:1007F000CF910C948C00CF93C42FFC01808191E0A9
:10080000909325028093470210922602109248028C
:100810008FE293E00E94A7036C2F8FE293E00E9487
:10082000A703CF910C948C0090E080E00895813074
:10083000F1F0B0F08230E9F0E82FF0E0E559FF4F39
:100840009081692B60839091680021E030E001C0C5
:10085000220F8A95EAF7892F822B809368000895EA
:1008600093B1E42FF0E0E053FE4F9083E5CF96B1D3
:10087000F8CF99B1F6CF0895CF93C42FFC018081B2
:1008800091E09093250280934702109226021092E5
:1008900048028FE293E00E94A7036C2F8FE293E05F
:1008A0000E94A703CF910C948C000F931F93CF93BA
:1008B000DF93042FD52F122FC32FFC01808191E0ED
:1008C00090932502809347021092260210924802CC
:1008D000F4E06F9FB00111246A5F7F4F8FE293E0D5
:1008E0000E94A703802F9D2F0E94D6038D2F90E09A
:1008F0000E94D603812F9C2F0E94D6038C2F90E05C
:100900000E94D603DF91CF911F910F910C948C0020
:100910009A01895B9F4F211540E1340730F030E0A8
:1009200020E040E050E10C94550450E040E0FBCF63
:100930001F93CF93DF93EC01162F70E090E080E0DF
:100940000E94551120E030E044EB52E40E94B210C6
:1009500020E030E040E05FE30E94461020E030E01D
:100960004AE754E40E94E11120E030E44CE950E40D
:100970000E94B2100E942411AB0168818B819C817E
:100980000E9488041E83DF91CF911F9108958830C3
:1009900088F590E1980F2091CF013091CC018630FD
:1009A00008F064C0843008F047C07093C3016093BE
:1009B000C201805F2EEB35E0823109F064C03093D4
:1009C000250120932401877061E070E001C0660F6B
:1009D0008A95EAF78091CF01862B8093CF01809191
:1009E000CC01862B8093CC0142E082E00E94170468
:1009F00081E008958A30C8F67093C9016093C801F8
:100A000088502CEA35E009F04DC030930101209365
:100A1000000161E070E001C0660F8A95EAF78091FD
:100A2000CD01862B8093CD018091CA01862B8093C6
:100A3000CA0140E080E0DACF7093C5016093C40141
:100A400048EB55E0943121F550931901409318017A
:100A5000977061E070E001C0660F9A95EAF7262B67
:100A60002093CF01362B3093CC01BECF7093C701BA
:100A70006093C60142EB55E0963179F450931D0125
:100A800040931C01E5CF30932701209326019BCF93
:100A900050931B0140931A01DBCF50931F014093E9
:100AA0001E01D6CF3093030120930201B2CF1F93D2
:100AB000CF93DF93EC0188810E949F02182F8981D8
:100AC0000E949F02EA81E3701111E4608111E860E5
:100AD0008E2F90E095958795959587958A83E1501F
:100AE000EE30F0F4F0E0E958FA4F0C944E12850520
:100AF00094059C0594059005A40585058505A40528
:100B0000900594059C05940585058B819C81AD819C
:100B1000BE810196A11DB11D8B839C83AD83BE83D5
:100B2000DF91CF911F9108958B819C81AD81BE8112
:100B30000197A109B109F0CF8B819C81AD81BE8164
:100B40000296A11DB11DE8CF8B819C81AD81BE8134
:100B50000297A109B109E0CF8091C8019091C90124
:100B60000C9457058091C6019091C7010C945705CC
:100B70008091C4019091C5010C9457058091C201E8
:100B80009091C3010C9457050F931F93CF93DF935C
:100B9000EC01615019E008E051F017E006E0613027
:100BA00031F014E005E0623011F412E003E0802F30
:100BB0000E94E900812F0E94E90080EE90E1998374
:100BC00088830A871B871D861E861F86188A8BE3EB
:100BD0009FE10197F1F71C862A96BE01802F0E94A3
:100BE000C704BE01812FDF91CF911F910F910C940B
:100BF000C70490916F029111FCCF91E090936F0226
:100C000090936E022FEF20936D0210926C02260FCC
:100C100020936B0290936A0290916A02880F892B4D
:100C200080936A0280916902813019F510926902FD
:100C300080916A028093BB008091BC0083FDF8CF55
:100C400085EC8093BC0080916F028130E1F380914C
:100C50006C02861710F460916C02A9E4B2E0E2E73E
:100C6000F2E080E0861307C0109271028093700258
:100C7000089585EEE6CF9D9191938F5FF3CFCF934B
:100C8000DF93EC01888191E09093250280934702E5
:100C900010922602109248028FE293E00E94A7036E
:100CA0000E948C0062E088810E94F9052091700208
:100CB00080917102281B330B80ED97E022303105C3
:100CC00024F4009791F00197F9CF009771F08FE22B
:100CD00093E00E946703C82F8FE293E00E946703AE
:100CE00020E03C2FA901482BCA01DF91CF91089544
:100CF000CF92DF92EF92FF920F931F93CF93DF93E8
:100D00008C01D62FD42E6EE00E943F0641E050E0C9
:100D10009A0102C0220F331FDA95E2F7E9018095AC
:100D2000909582239D23892BD1F060E1C8010E9418
:100D30003F06AE01482B592BD11005C0C095D09568
:100D4000AE014823592360E1C801DF91CF911F9183
:100D50000F91FF90EF90DF90CF900C94DB0366E053
:100D6000C8010E943F067C0168E0C8010E943F065E
:100D7000AE0140955095DD2069F06C01C422D5226A
:100D8000AE014E295F2966E0C8010E94DB03A6017F
:100D900068E0DACFC82BD92B4E215F2166E0C8016D
:100DA0000E94DB03AE01F4CFCF93DF93EC01888187
:100DB00091E09093250280934702109226021092B0
:100DC00048028FE293E00E94A7030E948C0061E03A
:100DD00088810E94F9052091700280917102281B80
:100DE000330B88EE93E01216130624F0009759F0A7
:100DF0000197F9CF892B39F08FE293E00E946703C6
:100E0000DF91CF91089580E0FBCFCF93DF93EC018A
:100E10006B836230D1F128F4613001F1DF91CF9121
:100E20000895633009F443C06430C1F78C819D811B
:100E300030E020E050E040E06981895B9F4F0E94F4
:100E400055048C819D8130E020E050E040E06A81D3
:100E5000895B9F4FDF91CF910C9455048C819D81CC
:100E600030E020E050E040E06A81895B9F4F0E94C3
:100E70005504488180E1489FA001112469818C813B
:100E80009D81DF91CF910C9488048C819D8130E00D
:100E900020E050E040E06981895B9F4F0E9455044B
:100EA000488180E1489FA00111246A81E8CF8C81AC
:100EB0009D8130E020E040E050E16981895B9F4FF7
:100EC0000E9455048C819D8130E020E040E050E19B
:100ED000BECF880F991FFC01EF5BFC4F63E0808160
:100EE00091810C940507FC01608363810C940507D4
:100EF000FC0101900020E9F73197AF01481B590B25
:100F0000BC0182E992E00C941301CF93DF93D0E00F
:100F1000C0E0009719F00E947807EC0182E591E0AB
:100F20000E9478078C0F9D1FDF91CF910895CF937A
:100F3000DF93EC0185E591E00E948507CE010E94D8
:100F4000850783E591E0DF91CF910C948507CF93DE
:100F5000DF93EC018CE591E00E948507CE010E94B1
:100F6000850783E591E0DF91CF910C94850783306D
:100F7000910559F084309105A9F0029769F462E077
:100F8000809145039091460305C061E0809147033D
:100F9000909148030C94050761E080914303909180
:100FA0004403F8CF62E08091490390914A03F2CF65
:100FB00081E090E00E94B70783E090E00E94B707CD
:100FC00082E090E00E94B70784E090E00C94B707BD
:100FD000CF93DF93EC010E94690761E070E080E04D
:100FE00090E00E94ED02CE01DF91CF910C94B70703
:100FF0001F920F920FB60F9211242F933F934F938E
:101000005F936F937F938F939F93AF93BF93EF9370
:10101000FF9382E992E00E949101FF91EF91BF91CD
:10102000AF919F918F917F916F915F914F913F9180
:101030002F910F900FBE0F901F9018951F920F9237
:101040000FB60F9211242F938F939F93EF93FF93DB
:10105000E091A202F091A3028081E091A802F091B8
:10106000A90282FD1BC090818091AB028F5F8F73BC
:101070002091AC02821741F0E091AB02F0E0EE5615
:10108000FD4F958F8093AB02FF91EF919F918F91D0
:101090002F910F900FBE0F901F9018958081F4CF65
:1010A0001F920F920FB60F9211242F933F938F939D
:1010B0009F93AF93BF938091170290911802A091D4
:1010C0001902B0911A023091160223E0230F2D3736
:1010D00058F50196A11DB11D2093160280931702A9
:1010E00090931802A0931902B0931A0280911B02E8
:1010F00090911C02A0911D02B0911E020196A11DAB
:10110000B11D80931B0290931C02A0931D02B0930B
:101110001E02BF91AF919F918F913F912F910F90A0
:101120000FBE0F901F90189526E8230F0296A11D61
:10113000B11DD2CF1F920F920FB60F9211242F9391
:101140003F934F935F936F937F938F939F93AF934F
:10115000BF93EF93FF938091B900887F803609F4A5
:101160004AC0F0F5883209F4A7C018F5803109F4B7
:101170009BC0B8F4882309F4F9C0883009F494C0FE
:10118000FF91EF91BF91AF919F918F917F916F915F
:101190005F914F913F912F910F900FBE0F901F9035
:1011A0001895883109F488C0803251F780936D0218
:1011B00014C0803409F49DC040F48033B9F38833FF
:1011C000F9F680936D0285ECB0C0803509F485C0D6
:1011D000883509F496C0883499F60E942603D0CF4A
:1011E000883909F48CC038F5883729F050F48836EE
:1011F00011F0803729F683E080936F021092150278
:1012000057C0883809F47BC0803919F0803809F05C
:10121000B7CF80911502803208F071C0E0911502BD
:1012200081E08E0F809315028091BB00F0E0EB50BF
:10123000FE4F80833DC0803B39F0E0F4803A09F4F2
:1012400079C0883A09F09CCF84E080936F021092B5
:10125000F4011092F301E0912302F0912402099528
:101260008091F30181110FC081E08093F30110920E
:10127000D30109C0803C09F4A6CF883C09F4A3CF70
:10128000883B09F07DCFE091F40181E08E0F8093DF
:10129000F401F0E0ED52FE4F80818093BB0090910D
:1012A000F4018091F30129C080916A028093BB0010
:1012B00085EC8093BC0064CF90916C0280916B02AE
:1012C000981758F5E0916C0281E08E0F80936C02C4
:1012D000F0E0E75BFD4F8081E9CFE0916C0281E0B7
:1012E0008E0F80936C028091BB00F0E0E75BFD4FB6
:1012F000808390916C0280916B029817C8F285E808
:10130000D8CFE0916C0281E08E0F80936C028091C7
:10131000BB00F0E0E75BFD4F808380916E0281119E
:101320005CCF81E08093690284EA8093BC001092D4
:101330006F0226CF85EC8093BC0010926F028091E3
:101340001502803230F4E0911502F0E0EB50FE4FD0
:1013500010826091150270E0E0912102F09122026A
:1013600085EF91E00995109215020ACF10926D0257
:1013700034CF1F920F920FB60F9211242F933F93E9
:101380004F935F936F937F938F939F93AF93BF938D
:10139000CF93EF93FF9399B18091D201C091CF0188
:1013A000C923282F2095C2232091CC018223292FE5
:1013B00020958223C82B9093D201C4FF05C0E091F1
:1013C0001801F09119010995C5FF05C0E0911A01B6
:1013D000F0911B010995C6FF05C0E0911C01F09139
:1013E0001D010995C7FF05C0E0911E01F0911F0185
:1013F0000995C0FF05C0E0912001F09121010995F8
:10140000C1FF05C0E0912201F09123010995C2FFBF
:1014100005C0E0912401F09125010995C3FF05C0A5
:10142000E0912601F09127010995FF91EF91CF916D
:10143000BF91AF919F918F917F916F915F914F91EC
:101440003F912F910F900FBE0F901F9018951F92F4
:101450000F920FB60F9211242F933F934F935F93E8
:101460006F937F938F939F93AF93BF93CF93EF939C
:10147000FF9396B18091D101C091CE01C923282F4D
:101480002095C2232091CB018223292F20958223EE
:10149000C82B9093D101C0FF05C0E0910C01F091E1
:1014A0000D010995C1FF05C0E0910E01F0910F01FA
:1014B0000995C2FF05C0E0911001F0911101099555
:1014C000C3FF05C0E0911201F09113010995C4FF1B
:1014D00005C0E0911401F09115010995C5FF05C003
:1014E000E0911601F09117010995FF91EF91CF91CD
:1014F000BF91AF919F918F917F916F915F914F912C
:101500003F912F910F900FBE0F901F9018951F9233
:101510000F920FB60F9211242F933F934F935F9327
:101520006F937F938F939F93AF93BF93CF93EF93DB
:10153000FF9393B18091D001C091CD01C923282F91
:101540002095C2232091CA018223292F209582232E
:10155000C82B9093D001C0FF05C0E0910001F0912D
:1015600001010995C1FF05C0E0910201F09103015D
:101570000995C2FF05C0E0910401F09105010995AC
:10158000C3FF05C0E0910601F09107010995C4FF72
:1015900005C0E0910801F09109010995C5FF05C05A
:1015A000E0910A01F0910B010995FF91EF91CF9124
:1015B000BF91AF919F918F917F916F915F914F916B
:1015C0003F912F910F900FBE0F901F901895109282
:1015D00095021092940288EE93E0A0E0B0E0809330
:1015E000960290939702A0939802B093990222E3F7
:1015F00031E0309393022093920225EC30E0309357
:101600009F0220939E0224EC30E03093A1022093AD
:10161000A00220EC30E03093A3022093A20221EC40
:1016200030E03093A5022093A40222EC30E0309306
:10163000A7022093A60226EC30E03093A902209363
:10164000A8021092AB021092AC021092AD0210925E
:10165000AE021092320310923103809333039093C1
:101660003403A0933503B093360384E491E0909360
:10167000300380932F0385E691E090933E0380939F
:101680003D0310924C0310924B03E9E6F3E080E037
:1016900090E0A0E8BFE340E050E060E87FEB148614
:1016A000158616861786808B918BA28BB38B848BC5
:1016B000958BA68BB78B408F518F628F738F10865F
:1016C0001186128613861482158216821782108262
:1016D0001182128213827C9623E0E53FF207F9F62D
:1016E00084E090E090933C0380933B030895CF9374
:1016F000DF93CDB7DEB7A6970FB6F894DEBF0FBE67
:10170000CDBF789484B5826084BD84B5816084BD8A
:1017100085B5826085BD85B5816085BD80916E008F
:10172000816080936E0010928100809181008260C0
:1017300080938100809181008160809381008091FD
:1017400080008160809380008091B10084608093EC
:10175000B1008091B00081608093B00080917A00E8
:10176000846080937A0080917A00826080937A000E
:1017700080917A00816080937A0080917A008068FD
:1017800080937A001092C10081E791E00E94970750
:10179000E091A202F091A30282E08083E0919E0298
:1017A000F0919F021082E091A002F091A1028FECD3
:1017B00080831092AA02E091A602F091A70286E02F
:1017C0008083E091A402F091A502808180618083F2
:1017D000E091A402F091A502808188608083E0916D
:1017E000A402F091A502808180688083E091A40228
:1017F000F091A50280818F7D808387E791E00E9430
:10180000970780913D0390913E030E9497071092A5
:10181000FE031092FD031092FA031092F903109246
:10182000F8031092F7031092FC031092FB0380E878
:1018300090E00E9454128C01FC0133964F96158261
:10184000148216821282118210823796E817F907E5
:10185000B1F7D8019B961C929B979E961C929E97DF
:101860009A961C921E929997DF961C92F801EE5B55
:10187000FF4F1082F80116AE15AE7801F7E4EF0EB7
:10188000F11CF801E85BFF4FCF01C8961482138268
:1018900015821082168237968E179F07B9F780E659
:1018A000D8018C93F70180831093400300933F038A
:1018B0000E946F020E946F0240E060E0C7010E9438
:1018C0003C0482E390E0D80112969C938E9311978A
:1018D000F701808191E09093250280934702109256
:1018E00026021092480260E08FE293E00E94A70374
:1018F0000E948C0061E0D7018C910E94F9058FE273
:1019000093E00E946703182F482F4F76406160E0F4
:10191000C7010E943C0447E86EEFC7010E943C04E7
:10192000412F60E0C7010E943C0465E070E080E068
:1019300090E00E94ED02412F416A60E0C7010E94E1
:101940003C0410E030E020E050E040E0612FC701AF
:101950000E9455041F5F1031A9F7E0913F03F091F9
:1019600040038789811108C082E0878BF68BE58B65
:101970008FE0828B8EE0838BCF014196909348035A
:10198000809347038185811106C0F087E78388E053
:10199000848389E08583CF010396909344038093E9
:1019A00043038089811108C081E0808BF787E68737
:1019B0008AE083878BE08487CF010A969093460361
:1019C00080934503868D811108C083E0868FF58F53
:1019D000E48F8DE0818F8CE0828F7896F0934A03BC
:1019E000E093490388E090E00E9454128C01FC01CE
:1019F000148215821682178290934C0380934B03B6
:101A00008FE380838FEF83830E946F02D801139648
:101A10008C918F3F09F43EC26FE1C8010E94D40649
:101A200082FF06C0482F4B7F6FE1C8010E94FB0375
:101A3000F801F3806EE0C8010E943F0641E050E0EB
:101A400002C0440F551FFA94E2F740955095482381
:101A500059236EE0C8010E94DB0340E0D8011396D1
:101A60006C91C8010E94780661E070E080E090E02F
:101A70000E94ED0241E0F8016381C8010E947806EE
:101A800063E1C8010E943F0681159F4F09F40DC212
:101A900087E891E00E94A70700914B0310914C0347
:101AA0006EE0C8010E943F06AC0141606EE0C801D3
:101AB0000E94DB0300914B0310914C036EE0C801C0
:101AC0000E943F06AC0142606EE0C8010E94DB0349
:101AD00000914B0310914C036EE0C8010E943F0639
:101AE000AC0144606EE0C8010E94DB0300914B032F
:101AF00010914C036EE0C8010E943F06AC014860A3
:101B00006EE0C8010E94DB0300914B0310914C036F
:101B10006EE0C8010E943F06AC0140616EE0C80162
:101B20000E94DB03E0913F03F0914003DF01A35BE0
:101B3000BF4F2C91CF01885B9F4F21110AC0129794
:101B4000ED93FC93DC011C922181328111962D933F
:101B50003C939093500380934F03DF01A258BF4FF3
:101B60002C91CF0187589F4F21110CC027E02C9357
:101B70001297ED93FC93DC012C9321813281119615
:101B80002D933C9390935E0380935D03DF01AE59E8
:101B9000BF4F2C91CF01835A9F4F21110CC023E0DE
:101BA0002C931297ED93FC93DC012C9321813281CD
:101BB00011962D933C9390935603809355039F0168
:101BC00027593F4FD9018C91AF014C595F4F81117B
:101BD00011C084E08C9322503109D901ED93FC931C
:101BE000DA018C93CF018B599F4F21813281FC0107
:101BF00031832083509358034093570381E190E051
:101C00000E9454128C0163E00E94C4051093660385
:101C10000093650381E190E00E9454128C0161E021
:101C20000E94C405109362030093610381E190E078
:101C30000E9454128C0162E00E94C4051093640358
:101C40000093630381E190E00E9454128C0164E0F0
:101C50000E94C40510936803009367030E94D8078D
:101C60006EE180914F03909150030E94980462E3CB
:101C700080915D0390915E030E94980462E88091D8
:101C80005503909156030E94980460E08091570399
:101C9000909158030E94980460E3809147039091CB
:101CA00048030E94730700E310E01093FC030093C5
:101CB000FB0360E380914303909144030E94730708
:101CC0001093F8030093F7036DE280914503909120
:101CD00046030E9473070DE210E01093FA0300938D
:101CE000F9036DE28091490390914A030E947307C2
:101CF0001093FE030093FD0344244394512C33249A
:101D0000339480911F0290912002019690932002BB
:101D100080931F0210E000E0F12CE12C000F111F56
:101D2000A0904B03B0904C036EE0C5010E943F06AB
:101D300062010E2C02C0CC0CDD1C0A94E2F78C214F
:101D40009D21892B49F060E1C5010E943F06C82210
:101D5000D92291E0CD2809F490E09325090F111DB7
:101D6000FFEFEF1AFF0A25E0E216F104B9F681E071
:101D7000480190E18922992404FF80E08AA381E050
:101D80005801A8E0AA22BB2403FF80E08BA381E0D6
:101D90003801B4E06B22772402FF80E08CA381E05D
:101DA0006801E2E0CE22DD2401FF80E08DA3802FD8
:101DB00081708EA38EE991E00E9497077E01F2E286
:101DC000EF0EF11C40E3242ED7018D917D01882375
:101DD00031F019A228A2CE0180960E9478072394A0
:101DE000B5E32B12F1CF60E282E992E00E94B301E9
:101DF00082E591E00E947807892809F474C08FA1D8
:101E000003E010E0882311F005E010E0C80101971D
:101E1000029708F07FC088E290E090934E03809391
:101E20004D030630110509F0D2C00E94D8076EE1BB
:101E300080914303909144030E9473070EE110E0E8
:101E40001093F8030093F7036EE18091470390919C
:101E500048030E9473071093FC030093FB036BE29B
:101E60008091490390914A030E9473070BE210E0AE
:101E70001093FE030093FD036BE280914503909164
:101E800046030E9473071093FA030093F90304E0DA
:101E900010E053C042E16DE7C8010E94FB0344E338
:101EA0006DE7C8010E94FB03EBCD40E46EE1C80181
:101EB0000E94FB0380E894E8AEE1B0E0F80184837F
:101EC0009583A683B7836FE1C8010E94D4068F78FB
:101ED000482F40616FE1C8010E94FB0382E991E055
:101EE0000E949707D9CDAB2879F400FD10C001E01E
:101EF00010E0CD2809F08ACF04E010E0672809F04F
:101F000085CF06E010E082CF02E010E07FCF10E046
:101F100000E07CCF82E890E090934E0380934D03E5
:101F20008AEA91E00330110531F00115110509F03D
:101F300078CF83EB91E00E949707C8010297029740
:101F400008F04AC083E090E00E94E80781E090E05A
:101F50000E94E80782E090E00E94690784E090E038
:101F60000E94690760914D032EE1F22EF60E6F2D4F
:101F700080914303909144030E9473076F2D70E09A
:101F80007093F8036093F70360914D033EE1F32EE5
:101F9000F60E6F2D80914703909148030E947307BE
:101FA0006F2D70E07093FC036093FB0310933C0370
:101FB00000933B0380E090E0892B09F4A2CE0E94BD
:101FC0007D01882309F49BCE0E94000098CE043046
:101FD000110509F42ACFB1CF02301105A8F582E02E
:101FE00090E00E94E80784E090E00E94E80783E028
:101FF00090E00E94690781E090E00E94690760918B
:102000004D038BE2F82EF60E6F2D809149039091CF
:102010004A030E9473076F2D70E07093FE03609374
:10202000FD0360914D039BE2F92EF60E6F2D80911A
:102030004503909146030E9473076F2D70E07093E3
:10204000FA036093F903B2CF0530110509F0AECF62
:102050008DEB91E00E94970783E090E00E94690772
:1020600081E090E00E94690784E090E00E946907A7
:1020700082E090E00E94690760E27EE480E090E008
:102080000E94ED020E94D80791CF5058BB27AA2783
:102090000E945D100C94A7110E94991138F00E94C3
:1020A000A01120F039F49F3F19F426F40C949611F6
:1020B0000EF4E095E7FB0C949011E92F0E94B81103
:1020C00058F3BA17620773078407950720F079F46D
:1020D000A6F50C94DA110EF4E0950B2EBA2FA02D74
:1020E0000B01B90190010C01CA01A0011124FF27C5
:1020F000591B99F0593F50F4503E68F11A16F040C0
:10210000A22F232F342F4427585FF3CF46953795BE
:102110002795A795F0405395C9F77EF41F16BA0B83
:10212000620B730B840BBAF09150A1F0FF0FBB1F31
:10213000661F771F881FC2F70EC0BA0F621F731F7A
:10214000841F48F4879577956795B795F7959E3FD7
:1021500008F0B0CF9395880F08F09927EE0F979568
:10216000879508950E94C6100C94A7110E94A01193
:1021700058F00E94991140F029F45F3F29F00C9427
:10218000901151110C94DB110C9496110E94B8110E
:1021900068F39923B1F3552391F3951B550BBB2796
:1021A000AA2762177307840738F09F5F5F4F220FDB
:1021B000331F441FAA1FA9F335D00E2E3AF0E0E8D2
:1021C00032D091505040E695001CCAF72BD0FE2F1C
:1021D00029D0660F771F881FBB1F261737074807B0
:1021E000AB07B0E809F0BB0B802DBF01FF27935868
:1021F0005F4F3AF09E3F510578F00C9490110C948B
:10220000DB115F3FE4F3983ED4F3869577956795AD
:10221000B795F7959F5FC9F7880F911D969587959C
:1022200097F90895E1E0660F771F881FBB1F6217BB
:1022300073078407BA0720F0621B730B840BBA0B79
:10224000EE1F88F7E09508950E94C01188F09F570F
:1022500098F0B92F9927B751B0F0E1F0660F771FCA
:10226000881F991F1AF0BA95C9F714C0B13091F0C0
:102270000E94DA11B1E008950C94DA11672F782FDB
:102280008827B85F39F0B93FCCF386957795679585
:10229000B395D9F73EF490958095709561957F4FF1
:1022A0008F4F9F4F0895E89409C097FB3EF4909597
:1022B0008095709561957F4F8F4F9F4F9923A9F01F
:1022C000F92F96E9BB279395F695879577956795AE
:1022D000B795F111F8CFFAF4BB0F11F460FF1BC0F2
:1022E0006F5F7F4F8F4F9F4F16C0882311F096E985
:1022F00011C0772321F09EE8872F762F05C0662333
:1023000071F096E8862F70E060E02AF09A95660FEB
:10231000771F881FDAF7880F9695879597F90895A4
:1023200097F99F6780E870E060E008959FEF80EC88
:10233000089500240A94161617061806090608952B
:1023400000240A9412161306140605060895092E91
:102350000394000C11F4882352F0BB0F40F4BF2B00
:1023600011F460FF04C06F5F7F4F8F4F9F4F089540
:1023700057FD9058440F551F59F05F3F71F0479536
:10238000880F97FB991F61F09F3F79F0879508951B
:10239000121613061406551FF2CF4695F1DF08C03A
:1023A000161617061806991FF1CF86957105610557
:1023B00008940895E894BB2766277727CB0197F9FF
:1023C00008950E94F4110C94A7110E94991138F0FD
:1023D0000E94A01120F0952311F00C9490110C9400
:1023E000961111240C94DB110E94B81170F3959F83
:1023F000C1F3950F50E0551F629FF001729FBB27FC
:10240000F00DB11D639FAA27F00DB11DAA1F649F97
:102410006627B00DA11D661F829F2227B00DA11D4A
:10242000621F739FB00DA11D621F839FA00D611DD0
:10243000221F749F3327A00D611D231F849F600DF1
:10244000211D822F762F6A2F11249F5750409AF01A
:10245000F1F088234AF0EE0FFF1FBB1F661F771FA6
:10246000881F91505040A9F79E3F510580F00C9471
:1024700090110C94DB115F3FE4F3983ED4F3869502
:1024800077956795B795F795E7959F5FC1F7FE2B11
:10249000880F911D9695879597F90895EE0FFF1F68
:1024A0000590F491E02D09940F931F93CF93DF9340
:1024B0008230910510F482E090E0E0910104F09107
:1024C000020430E020E0B0E0A0E0309799F421155C
:1024D000310509F44AC0281B390B24303105D8F5E1
:1024E0008A819B816115710589F1FB019383828348
:1024F000FE0111C0408151810281138148175907A3
:10250000E0F04817590799F4109761F012960C9370
:10251000129713961C933296CF01DF91CF911F91A2
:102520000F9108950093010410930204F4CF211534
:10253000310551F04217530738F0A901DB019A0128
:10254000BD01DF01F801C1CFEF01F9CF9093020483
:1025500080930104CDCFFE01E20FF31F819391938D
:102560002250310939832883D7CF2091FF0330913E
:102570000004232B41F420912A0130912B01309348
:1025800000042093FF032091280130912901211597
:10259000310541F42DB73EB740912C0150912D01EA
:1025A000241B350BE091FF03F0910004E217F307C1
:1025B000A0F42E1B3F0B2817390778F0AC014E5FB3
:1025C0005F4F2417350748F04E0F5F1F50930004EC
:1025D0004093FF03819391939FCFF0E0E0E09CCF85
:1025E000CF93DF930097E9F0FC01329713821282B8
:1025F000A0910104B0910204ED0130E020E01097B9
:10260000A1F420813181820F931F2091FF0330912B
:1026100000042817390709F061C0F0930004E09323
:10262000FF03DF91CF910895EA01CE17DF07E8F5A8
:102630004A815B819E0141155105B1F7E901FB8398
:10264000EA8349915991C40FD51FEC17FD0761F436
:10265000808191810296840F951FE9019983888377
:10266000828193819B838A83F0E0E0E012968D91D2
:102670009C9113970097B9F52D913C911197CD013D
:102680000296820F931F2091FF03309100042817B8
:10269000390739F6309751F510920204109201046F
:1026A000B0930004A093FF03BCCFD383C2834081C7
:1026B0005181840F951FC817D90761F44E5F5F4F92
:1026C00088819981480F591F518340838A819B815A
:1026D000938382832115310509F0B0CFF093020472
:1026E000E09301049ECFFD01DC01C0CF1382128272
:0626F000D7CFF894FFCFE4
:1026F6003B043B043B043B043B043B043B043B04DC
:102706003B043B043B043B043B043B043B043B04CB
:102716003B043B043B043B04000003048000000030
:102726000000B30113014001000271014F01630172
:1027360000000000A7037A03140457031F0367036E
:1027460058030D0A005B4C6F675D3A005B45727279
:102756006F725D3A0068656C6C6F20776F726C649F
:1027660000626567696E0056656869636C6520433B
:1027760072656174656400493243204661696C651F
:1027860064004932432053746172746564005B448B
:102796006574656374696E675D00546F6F204C6580
:1027A600667400546F6F205269676874004C696ED6
:0227B6006500BC
:00000001FF
